{
  "abi": [
    {
      "inputs": [
        {
          "internalType": "bytes32",
          "name": "_secretHash",
          "type": "bytes32"
        }
      ],
      "name": "init",
      "outputs": [],
      "stateMutability": "payable",
      "type": "function"
    }
  ],
  "bytecode": "608060405234801561001057600080fd5b5060b38061001f6000396000f3fe608060405260043610601c5760003560e01c80633b663195146021575b600080fd5b6030602c3660046065565b6032565b005b6040514790339082156108fc029083906000818181858888f193505050501580156060573d6000803e3d6000fd5b505050565b600060208284031215607657600080fd5b503591905056fea264697066735822122023aa8665eec479c61903c4d07df57eaa47f4dfed0e11bac81e6a6b2c9066dafc64736f6c634300080b0033",
  "bytecodeSha1": "0d585b4094ea077aa8d6ddfe29a2a04d64e80347",
  "compiler": {
    "evm_version": "istanbul",
    "optimizer": {
      "enabled": true,
      "runs": 200
    },
    "version": "0.8.11+commit.d7f03943"
  },
  "contractName": "AttackPrivateLog",
  "language": "Solidity",
  "natspec": {
    "author": "Blue Alder (https://duc.tf)*",
    "kind": "dev",
    "methods": {},
    "title": "Private Log",
    "version": 1
  },
  "opcodes": "PUSH1 0x80 PUSH1 0x40 MSTORE PUSH1 0x4 CALLDATASIZE LT PUSH1 0x1C JUMPI PUSH1 0x0 CALLDATALOAD PUSH1 0xE0 SHR DUP1 PUSH4 0x3B663195 EQ PUSH1 0x21 JUMPI JUMPDEST PUSH1 0x0 DUP1 REVERT JUMPDEST PUSH1 0x30 PUSH1 0x2C CALLDATASIZE PUSH1 0x4 PUSH1 0x65 JUMP JUMPDEST PUSH1 0x32 JUMP JUMPDEST STOP JUMPDEST PUSH1 0x40 MLOAD SELFBALANCE SWAP1 CALLER SWAP1 DUP3 ISZERO PUSH2 0x8FC MUL SWAP1 DUP4 SWAP1 PUSH1 0x0 DUP2 DUP2 DUP2 DUP6 DUP9 DUP9 CALL SWAP4 POP POP POP POP ISZERO DUP1 ISZERO PUSH1 0x60 JUMPI RETURNDATASIZE PUSH1 0x0 DUP1 RETURNDATACOPY RETURNDATASIZE PUSH1 0x0 REVERT JUMPDEST POP POP POP JUMP JUMPDEST PUSH1 0x0 PUSH1 0x20 DUP3 DUP5 SUB SLT ISZERO PUSH1 0x76 JUMPI PUSH1 0x0 DUP1 REVERT JUMPDEST POP CALLDATALOAD SWAP2 SWAP1 POP JUMP INVALID LOG2 PUSH5 0x6970667358 0x22 SLT KECCAK256 0x23 0xAA DUP7 PUSH6 0xEEC479C61903 0xC4 0xD0 PUSH30 0xF57EAA47F4DFED0E11BAC81E6A6B2C9066DAFC64736F6C634300080B0033 ",
  "sha1": "ccf3c1e266d92c20e8871e3d4b30c5588cb9157e",
  "source": "// SPDX-License-Identifier: MIT\n\npragma solidity ^0.8.0;\n\n/**\n * @title Private Log\n * @author Blue Alder (https://duc.tf)\n **/\n\ncontract AttackPrivateLog {\n\n    function init(bytes32 _secretHash) payable public  {\n        uint256 bal = address(this).balance;\n        payable(msg.sender).transfer(bal);\n    }\n\n}",
  "sourcePath": "contracts/PrivateLog/AttackPrivateLog.sol",
  "type": "contract"
}